S00A000055532E7372656372
S11300000C942A000C9472020C9499020C94C00271
S11300100C94E7020C940E030C9435030C945C03CB
S11300200C9483030C94AA030C94D1030C94F8034A
S11300300C941F040C9446040C946D040C949404C6
S11300400C94BB040C94E2040C9409050C94300544
S11300500C94570511241FBECFE5D8E0DEBFCDBFF9
S113006010E0A0E6B0E0E8E1FBE002C005900D92EC
S1130070AC36B107D9F710E0ACE6B0E001C01D9290
S1130080A53AB107E1F70E947E050C948A050C9409
S11300900000FC018281882321F08F3F09F04AC0CF
S11300A027C08081813079F0813030F0823091F046
S11300B0833009F041C015C09AB3818180958923AA
S11300C08ABB80E0089597B381818095892387BB9B
S11300D080E0089594B381818095892384BB80E076
S11300E0089591B381818095892381BB80E008952F
S11300F08081813069F0813028F0823079F083305A
S1130100E9F412C09AB38181892B8ABB80E00895F7
S113011097B38181892B87BB80E0089594B3818153
S1130120892B84BB80E0089591B38181892B81BBA5
S113013080E0089581E0089580E0089580E00895C6
S1130140442321F04F3F09F03FC021C0813069F0C2
S1130150813028F0823079F08330C1F512C08BB33E
S1130160609568236BBB80E0089588B3609568232D
S113017068BB80E0089585B36095682365BB80E023
S1130180089582B36095682362BB80E0089581304E
S113019061F0813028F0823069F08330C9F40FC0F7
S11301A08BB3682B6BBB80E0089588B3682B68BB66
S11301B080E0089585B3682B65BB80E0089582B321
S11301C0682B62BB80E0089581E0089580E0089583
S11301D080E00895FA01813059F0813028F08230AE
S11301E059F0833081F40CC089B3682360830BC059
S11301F086B36823608307C083B36823608303C026
S113020080B3682360838081882311F081E0808338
S11302100895813061F0813028F0823069F08330B4
S1130220A9F40FC08BB368276BBB80E0089588B333
S1130230682768BB80E0089585B3682765BB80E0C4
S1130240089582B3682762BB80E0089581E0089531
S1130250CF93DF93EC010E9449028881813041F001
S1130260813018F0823049F406C00E94620205C051
S11302700E94560202C00E944D028981813051F0D1
S1130280813018F0823089F40CC083E083BF81E0B0
S113029089BF0BC085E090E09FBD8EBD84E089BF1F
S11302A004C087E085BD84E089BF80E0DF91CF9101
S11302B00895FA01813049F0813018F0823071F4E8
S11302C00AC083B7836083BF09C08EB59FB58560BC
S11302D09FBD8EBD03C085B5876085BD6130F9F0D3
S11302E0613018F06230B9F528C0809170009091A7
S11302F07100A0917200B091730040916C00509114
S11303006D0060916E0070916F00840F951FA61FA1
S1130310B71F80839183A283B38380E01DC0809143
S1130320700090917100A0917200B091730080836D
S11303309183A283B38380E00FC080916C0090917D
S11303406D00A0916E00B0916F0080839183A283B1
S1130350B38380E001C081E0408151816281738177
S1130360440F551F661F771F440F551F661F771FC5
S11303704083518362837383089542B720917C0044
S113038030E0922F8827821B930B840F911DAA279C
S113039097FDA095BA2F80937D0090937E00A09343
S11303A07F00B093800010927C0084B7829586957C
S11303B08695837080FF30C080917D0090917E008F
S11303C0A0917F00B0918000809378009093790091
S11303D0A0937A00B0937B0080917800909179008B
S11303E0A0917A00B0917B00409174005091750007
S11303F06091760070917700841B950BA60BB70B68
S113040080936C0090936D00A0936E00B0936F0086
S113041084B78F7B84BF2FC080917D0090917E0034
S1130420A0917F00B0918000809374009093750038
S1130430A0937600B093770080917400909175003A
S1130440A0917600B09177004091780050917900A6
S113045060917A0070917B00841B950BA60BB70BFF
S11304608093700090937100A0937200B093730016
S113047084B7806484BF8091700090917100A091D2
S11304807200B09173008CB9089581E080937C0070
S113049008958FB780688FBF0895BA98C29A8BB7B2
S11304A080628BBF84B7806484BF08958B98939ACD
S11304B08BB780688BBF85B7846085BF85B7877F1E
S11304C085BF08958A98929A8BB780648BBF85B74D
S11304D0816085BF85B78D7F85BF08958FB78F777E
S11304E08FBF08951F920F920FB60F9211242F936E
S11304F03F934F935F936F937F938F939F93AF93A8
S1130500BF93EF93FF93E0919500F09196000995C6
S1130510FF91EF91BF91AF919F918F917F916F91D7
S11305205F914F913F912F910F900FBE0F901F90AD
S113053018951F920F920FB60F9211242F933F9389
S11305404F935F936F937F938F939F93AF93BF93D7
S1130550EF93FF93E0919D00F0919E000995FF9128
S1130560EF91BF91AF919F918F917F916F915F9127
S11305704F913F912F910F900FBE0F901F901895A0
S11305801F920F920FB60F9211242F933F934F9304
S11305905F936F937F938F939F93AF93BF93EF93E7
S11305A0FF93E0916700F09168000995FF91EF9146
S11305B0BF91AF919F918F917F916F915F914F9177
S11305C03F912F910F900FBE0F901F9018951F927F
S11305D00F920FB60F9211242F933F934F935F9373
S11305E06F937F938F939F93AF93BF93EF93FF93F7
S11305F0E091A300F091A4000995FF91EF91BF91C0
S1130600AF919F918F917F916F915F914F913F91A6
S11306102F910F900FBE0F901F9018951F920F925D
S11306200FB60F9211242F933F934F935F936F93C1
S11306307F938F939F93AF93BF93EF93FF93E09137
S11306408500F09186000995FF91EF91BF91AF91DC
S11306509F918F917F916F915F914F913F912F91D6
S11306600F900FBE0F901F9018951F920F920FB608
S11306700F9211242F933F934F935F936F937F9324
S11306808F939F93AF93BF93EF93FF93E0919F005A
S1130690F091A0000995FF91EF91BF91AF919F91C7
S11306A08F917F916F915F914F913F912F910F9017
S11306B00FBE0F901F9018951F920F920FB60F92B6
S11306C011242F933F934F935F936F937F938F9353
S11306D09F93AF93BF93EF93FF93E0918B00F091BF
S11306E08C000995FF91EF91BF91AF919F918F91EC
S11306F07F916F915F914F913F912F910F900FBE1A
S11307000F901F9018951F920F920FB60F921124FD
S11307102F933F934F935F936F937F938F939F9305
S1130720AF93BF93EF93FF93E0918900F0918A0018
S11307300995FF91EF91BF91AF919F918F917F9117
S11307406F915F914F913F912F910F900FBE0F903A
S11307501F9018951F920F920FB60F9211242F938A
S11307603F934F935F936F937F938F939F93AF9335
S1130770BF93EF93FF93E091A100F091A20009953C
S1130780FF91EF91BF91AF919F918F917F916F9165
S11307905F914F913F912F910F900FBE0F901F903B
S11307A018951F920F920FB60F9211242F933F9317
S11307B04F935F936F937F938F939F93AF93BF9365
S11307C0EF93FF93E0919900F0919A000995FF91BE
S11307D0EF91BF91AF919F918F917F916F915F91B5
S11307E04F913F912F910F900FBE0F901F9018952E
S11307F01F920F920FB60F9211242F933F934F9392
S11308005F936F937F938F939F93AF93BF93EF9374
S1130810FF93E0916500F09166000995FF91EF91D7
S1130820BF91AF919F918F917F916F915F914F9104
S11308303F912F910F900FBE0F901F9018951F920C
S11308400F920FB60F9211242F933F934F935F9300
S11308506F937F938F939F93AF93BF93EF93FF9384
S1130860E0918D00F0918E000995FF91EF91BF9179
S1130870AF919F918F917F916F915F914F913F9134
S11308802F910F900FBE0F901F9018951F920F92EB
S11308900FB60F9211242F933F934F935F936F934F
S11308A07F938F939F93AF93BF93EF93FF93E091C5
S11308B08300F09184000995FF91EF91BF91AF916E
S11308C09F918F917F916F915F914F913F912F9164
S11308D00F900FBE0F901F9018951F920F920FB696
S11308E00F9211242F933F934F935F936F937F93B2
S11308F08F939F93AF93BF93EF93FF93E0919B00EC
S1130900F0919C000995FF91EF91BF91AF919F9158
S11309108F917F916F915F914F913F912F910F90A4
S11309200FBE0F901F9018951F920F920FB60F9243
S113093011242F933F934F935F936F937F938F93E0
S11309409F93AF93BF93EF93FF93E0919700F09140
S113095098000995FF91EF91BF91AF919F918F916D
S11309607F916F915F914F913F912F910F900FBEA7
S11309700F901F9018951F920F920FB60F9211248B
S11309802F933F934F935F936F937F938F939F9393
S1130990AF93BF93EF93FF93E0919100F091920096
S11309A00995FF91EF91BF91AF919F918F917F91A5
S11309B06F915F914F913F912F910F900FBE0F90C8
S11309C01F9018951F920F920FB60F9211242F9318
S11309D03F934F935F936F937F938F939F93AF93C3
S11309E0BF93EF93FF93E0919300F09194000995E6
S11309F0FF91EF91BF91AF919F918F917F916F91F3
S1130A005F914F913F912F910F900FBE0F901F90C8
S1130A1018951F920F920FB60F9211242F933F93A4
S1130A204F935F936F937F938F939F93AF93BF93F2
S1130A30EF93FF93E0918F00F09190000995FF915F
S1130A40EF91BF91AF919F918F917F916F915F9142
S1130A504F913F912F910F900FBE0F901F901895BB
S1130A601F920F920FB60F9211242F933F934F931F
S1130A705F936F937F938F939F93AF93BF93EF9302
S1130A80FF93E0918100F09182000995FF91EF912D
S1130A90BF91AF919F918F917F916F915F914F9192
S1130AA03F912F910F900FBE0F901F9018951F929A
S1130AB00F920FB60F9211242F933F934F935F938E
S1130AC06F937F938F939F93AF93BF93EF93FF9312
S1130AD0E0918700F09188000995FF91EF91BF9113
S1130AE0AF919F918F917F916F915F914F913F91C2
S1130AF02F910F900FBE0F901F901895FFCF89E68E
S1130B0090E00E94490083E690E00E942801089545
S10B0B1008950895F894FFCF45
S10F0B1801F0FF02004502BD010110FFC6
S9030000FC
