S00A000055532E7372656372
S11300000C942A000C9493010C94BA010C94E10111
S11300100C9408020C942F020C9456020C947D024A
S11300200C94A4020C94CB020C94F2020C941903C9
S11300300C9440030C9467030C948E030C94B50346
S11300400C94DC030C9403040C942A040C945104C3
S11300500C94780411241FBECFE5D8E0DEBFCDBFD9
S113006010E0A0E6B0E0EAE4F9E002C005900D92E9
S1130070A636B107D9F710E0A6E6B0E001C01D929C
S1130080AF39B107E1F70E949F040C94A3040C94C8
S11300900000CF93DF93EC010E946A0188818130D4
S11300A041F0813018F0823049F406C00E94830187
S11300B005C00E94770102C00E946E0189818130CF
S11300C051F0813018F0823089F40CC083E083BF92
S11300D081E089BF0BC085E090E09FBD8EBD84E0C8
S11300E089BF04C087E085BD84E089BF80E0DF91DB
S11300F0CF910895FA01813049F0813018F08230AF
S113010071F40AC083B7836083BF09C08EB59FB5FD
S113011085609FBD8EBD03C085B5876085BD613098
S1130120F9F0613018F06230B9F528C080916A00A6
S113013090916B00A0916C00B0916D0040916600AD
S1130140509167006091680070916900840F951F59
S1130150A61FB71F80839183A283B38380E01DC051
S113016080916A0090916B00A0916C00B0916D0039
S113017080839183A283B38380E00FC08091660063
S113018090916700A0916800B09169008083918389
S1130190A283B38380E001C081E040815181628108
S11301A07381440F551F661F771F440F551F661F29
S11301B0771F4083518362837383089542B72091EC
S11301C0760030E0922F8827821B930B840F911DB9
S11301D0AA2797FDA095BA2F809377009093780073
S11301E0A0937900B0937A001092760084B7829538
S11301F086958695837080FF30C0809177009091BA
S11302007800A0917900B0917A0080937200909365
S11302107300A0937400B093750080917200909164
S11302207300A0917400B091750040916E005091DC
S11302306F006091700070917100841B950BA60B88
S1130240B70B8093660090936700A0936800B09307
S1130250690084B78F7B84BF2FC080917700909111
S11302607800A0917900B0917A0080936E00909309
S11302706F00A0937000B093710080916E00909114
S11302806F00A0917000B091710040917200509184
S113029073006091740070917500841B950BA60B1C
S11302A0B70B80936A0090936B00A0936C00B0939B
S11302B06D0084B7806484BF80916A0090916B0064
S11302C0A0916C00B0916D008CB9089581E0809389
S11302D0760008958FB780688FBF0895BA98C29A40
S11302E08BB780628BBF84B7806484BF08958B987A
S11302F0939A8BB780688BBF85B7846085BF85B7B9
S1130300877F85BF08958A98929A8BB780648BBF44
S113031085B7816085BF85B78D7F85BF08958FB709
S11303208F778FBF08951F920F920FB60F921124EB
S11303302F933F934F935F936F937F938F939F93E9
S1130340AF93BF93EF93FF93E0918F00F0919000F0
S11303500995FF91EF91BF91AF919F918F917F91FB
S11303606F915F914F913F912F910F900FBE0F901E
S11303701F9018951F920F920FB60F9211242F936E
S11303803F934F935F936F937F938F939F93AF9319
S1130390BF93EF93FF93E0919700F0919800099534
S11303A0FF91EF91BF91AF919F918F917F916F9149
S11303B05F914F913F912F910F900FBE0F901F901F
S11303C018951F920F920FB60F9211242F933F93FB
S11303D04F935F936F937F938F939F93AF93BF9349
S11303E0EF93FF93E0916400F09165000995FF910C
S11303F0EF91BF91AF919F918F917F916F915F9199
S11304004F913F912F910F900FBE0F901F90189511
S11304101F920F920FB60F9211242F933F934F9375
S11304205F936F937F938F939F93AF93BF93EF9358
S1130430FF93E0919D00F0919E000995FF91EF914B
S1130440BF91AF919F918F917F916F915F914F91E8
S11304503F912F910F900FBE0F901F9018951F92F0
S11304600F920FB60F9211242F933F934F935F93E4
S11304706F937F938F939F93AF93BF93EF93FF9368
S1130480E0917F00F09180000995FF91EF91BF9179
S1130490AF919F918F917F916F915F914F913F9118
S11304A02F910F900FBE0F901F9018951F920F92CF
S11304B00FB60F9211242F933F934F935F936F9333
S11304C07F938F939F93AF93BF93EF93FF93E091A9
S11304D09900F0919A000995FF91EF91BF91AF9126
S11304E09F918F917F916F915F914F913F912F9148
S11304F00F900FBE0F901F9018951F920F920FB67A
S11305000F9211242F933F934F935F936F937F9395
S11305108F939F93AF93BF93EF93FF93E0918500E5
S1130520F09186000995FF91EF91BF91AF919F9152
S11305308F917F916F915F914F913F912F910F9088
S11305400FBE0F901F9018951F920F920FB60F9227
S113055011242F933F934F935F936F937F938F93C4
S11305609F93AF93BF93EF93FF93E0918300F09138
S113057084000995FF91EF91BF91AF919F918F9165
S11305807F916F915F914F913F912F910F900FBE8B
S11305900F901F9018951F920F920FB60F9211246F
S11305A02F933F934F935F936F937F938F939F9377
S11305B0AF93BF93EF93FF93E0919B00F0919C0066
S11305C00995FF91EF91BF91AF919F918F917F9189
S11305D06F915F914F913F912F910F900FBE0F90AC
S11305E01F9018951F920F920FB60F9211242F93FC
S11305F03F934F935F936F937F938F939F93AF93A7
S1130600BF93EF93FF93E0919300F09194000995C9
S1130610FF91EF91BF91AF919F918F917F916F91D6
S11306205F914F913F912F910F900FBE0F901F90AC
S113063018951F920F920FB60F9211242F933F9388
S11306404F935F936F937F938F939F93AF93BF93D6
S1130650EF93FF93E0916200F09163000995FF919D
S1130660EF91BF91AF919F918F917F916F915F9126
S11306704F913F912F910F900FBE0F901F9018959F
S11306801F920F920FB60F9211242F933F934F9303
S11306905F936F937F938F939F93AF93BF93EF93E6
S11306A0FF93E0918700F09188000995FF91EF9105
S11306B0BF91AF919F918F917F916F915F914F9176
S11306C03F912F910F900FBE0F901F9018951F927E
S11306D00F920FB60F9211242F933F934F935F9372
S11306E06F937F938F939F93AF93BF93EF93FF93F6
S11306F0E0917D00F0917E000995FF91EF91BF910B
S1130700AF919F918F917F916F915F914F913F91A5
S11307102F910F900FBE0F901F9018951F920F925C
S11307200FB60F9211242F933F934F935F936F93C0
S11307307F938F939F93AF93BF93EF93FF93E09136
S11307409500F09196000995FF91EF91BF91AF91BB
S11307509F918F917F916F915F914F913F912F91D5
S11307600F900FBE0F901F9018951F920F920FB607
S11307700F9211242F933F934F935F936F937F9323
S11307808F939F93AF93BF93EF93FF93E091910067
S1130790F09192000995FF91EF91BF91AF919F91D4
S11307A08F917F916F915F914F913F912F910F9016
S11307B00FBE0F901F9018951F920F920FB60F92B5
S11307C011242F933F934F935F936F937F938F9352
S11307D09F93AF93BF93EF93FF93E0918B00F091BE
S11307E08C000995FF91EF91BF91AF919F918F91EB
S11307F07F916F915F914F913F912F910F900FBE19
S11308000F901F9018951F920F920FB60F921124FC
S11308102F933F934F935F936F937F938F939F9304
S1130820AF93BF93EF93FF93E0918D00F0918E000F
S11308300995FF91EF91BF91AF919F918F917F9116
S11308406F915F914F913F912F910F900FBE0F9039
S11308501F9018951F920F920FB60F9211242F9389
S11308603F934F935F936F937F938F939F93AF9334
S1130870BF93EF93FF93E0918900F0918A0009956B
S1130880FF91EF91BF91AF919F918F917F916F9164
S11308905F914F913F912F910F900FBE0F901F903A
S11308A018951F920F920FB60F9211242F933F9316
S11308B04F935F936F937F938F939F93AF93BF9364
S11308C0EF93FF93E0917B00F0917C000995FF91F9
S11308D0EF91BF91AF919F918F917F916F915F91B4
S11308E04F913F912F910F900FBE0F901F9018952D
S11308F01F920F920FB60F9211242F933F934F9391
S11309005F936F937F938F939F93AF93BF93EF9373
S1130910FF93E0918100F09182000995FF91EF919E
S1130920BF91AF919F918F917F916F915F914F9103
S11309303F912F910F900FBE0F901F901895FFCFEE
S10D0940089508950895F894FFCF78
S109094A02006601DE005C
S9030000FC
